:1000000000308A0072280000FF00030E8301A10067
:100010000A08A0008A010408A2007708A300780853
:10002000A4007908A5007A08A600831383128B1E0A
:100030001B280B192C28220884002308F700240809
:10004000F8002508F9002608FA0020088A00210E89
:100050008300FF0E7F0E09008A110A123D280A1044
:100060008A100A11820702349E3424340C349834E6
:10007000483440341E34003408340130A7072708C0
:100080004C3C031D4528AB0AA7010B118A110A122B
:100090001B28333084008313000803195C280630C2
:1000A000F800F701F70B5228F80B51287B30F700C6
:1000B000F70B5828800B4F2808003408F80133024A
:1000C000031865283308F7007128F7010830B500D8
:1000D000B30DF70D340877020318F700F80DB50BD0
:1000E0006828080003081F398300A701FF30B20009
:1000F00083161F149F141F159F1107309C00831334
:100100000108C03907388100831281018B16C03085
:100110008B042B083C3C031D92280130B30049207E
:10012000AA0AAB012A083C3C031D9828A90AAA0187
:100130002908183C0319A9012B08B3000A30B400A0
:100140005D207708B0002B08B3000A30B4005D20B2
:100150007808B1002A08B3000A30B4005D2077089F
:10016000AE002A08B3000A30B4005D207808AF0062
:100170002908B3000A30B4005D207708AC002908D4
:10018000B3000A30B4005D207808AD008717B213C1
:10019000320883168700831230082F20B30083169D
:1001A00088018312330888000130B3004920831688
:1001B0008801FF30831288008713B2133208831638
:1001C00087008312071732133208831687008312C1
:1001D00031082F20B300831688018312330888006A
:1001E0000130B300492083168801FF308312880054
:1001F0000713321332088316870083128716B21250
:1002000032088316870083122E082F20B30083162E
:1002100088018312330888000130B3004920831617
:100220008801FF30831288008712B21232088316C9
:100230008700831207163212320883168700831252
:100240002F082F20B30083168801831233088800FB
:100250000130B300492083168801FF3083128800E3
:100260000712321232088316870083128715B211E3
:1002700032088316870083122C082F20B3008316C0
:1002800088018312330888000130B30049208316A7
:100290008801FF30831288008711B211320883165B
:1002A00087008312071532113208831687008312E4
:1002B0002D082F20B300831688018312330888008D
:1002C0000130B300492083168801FF308312880073
:1002D0000711321132088316870083123214320854
:1002E00083168700831207187929A90AC830B3003A
:1002F0004920B21432088316870083128718842994
:0C030000AA0AC830B30049208928630015
:02400E00723FFF
:00000001FF
;PIC16F877A
;CRC=4C1C  CREATED="28-Oct-17 21:55"
